{
  "transactions": [
    {
      "hash": "0x5ffa0ecfad900e48296e27c11ccb122dc9cc680cf50d063e0d04d197ca8d312e",
      "transactionType": "CALL",
      "contractName": null,
      "contractAddress": "0x779877a7b0d9e8603169ddbd7836e478b4624789",
      "function": "transferAndCall(address,uint256,bytes)",
      "arguments": [
        "0x8103B0A8A00be2DDC778e6e7eaa21791Cd364625",
        "3000000000000000000",
        "0x0000000000000000000000000000000000000000000000000000000000000765"
      ],
      "transaction": {
        "from": "0xa725d004fa87a5202df119fe5aacec95043db7b9",
        "to": "0x779877a7b0d9e8603169ddbd7836e478b4624789",
        "gas": "0x13fbe",
        "value": "0x0",
        "input": "0x4000aea00000000000000000000000008103b0a8a00be2ddc778e6e7eaa21791cd36462500000000000000000000000000000000000000000000000029a2241af62c0000000000000000000000000000000000000000000000000000000000000000006000000000000000000000000000000000000000000000000000000000000000200000000000000000000000000000000000000000000000000000000000000765",
        "nonce": "0x2e",
        "chainId": "0xaa36a7",
        "accessList": null,
        "type": null
      },
      "additionalContracts": [],
      "isFixedGasLimit": false
    }
  ],
  "receipts": [
    {
      "status": "0x1",
      "cumulativeGasUsed": "0x1092f2a",
      "logs": [
        {
          "address": "0x779877a7b0d9e8603169ddbd7836e478b4624789",
          "topics": [
            "0xddf252ad1be2c89b69c2b068fc378daa952ba7f163c4a11628f55a4df523b3ef",
            "0x000000000000000000000000a725d004fa87a5202df119fe5aacec95043db7b9",
            "0x0000000000000000000000008103b0a8a00be2ddc778e6e7eaa21791cd364625"
          ],
          "data": "0x00000000000000000000000000000000000000000000000029a2241af62c0000",
          "blockHash": "0x20f4daac3115f9c3873f24d08b1e059487f4f02bfd2435ddf11c2436ddbd76eb",
          "blockNumber": "0x5a2e8a",
          "transactionHash": "0x5ffa0ecfad900e48296e27c11ccb122dc9cc680cf50d063e0d04d197ca8d312e",
          "transactionIndex": "0x3f",
          "logIndex": "0xee",
          "removed": false
        },
        {
          "address": "0x779877a7b0d9e8603169ddbd7836e478b4624789",
          "topics": [
            "0xe19260aff97b920c7df27010903aeb9c8d2be5d310a2c67824cf3f15396e4c16",
            "0x000000000000000000000000a725d004fa87a5202df119fe5aacec95043db7b9",
            "0x0000000000000000000000008103b0a8a00be2ddc778e6e7eaa21791cd364625"
          ],
          "data": "0x00000000000000000000000000000000000000000000000029a2241af62c0000000000000000000000000000000000000000000000000000000000000000004000000000000000000000000000000000000000000000000000000000000000200000000000000000000000000000000000000000000000000000000000000765",
          "blockHash": "0x20f4daac3115f9c3873f24d08b1e059487f4f02bfd2435ddf11c2436ddbd76eb",
          "blockNumber": "0x5a2e8a",
          "transactionHash": "0x5ffa0ecfad900e48296e27c11ccb122dc9cc680cf50d063e0d04d197ca8d312e",
          "transactionIndex": "0x3f",
          "logIndex": "0xef",
          "removed": false
        },
        {
          "address": "0x8103b0a8a00be2ddc778e6e7eaa21791cd364625",
          "topics": [
            "0xd39ec07f4e209f627a4c427971473820dc129761ba28de8906bd56f57101d4f8",
            "0x0000000000000000000000000000000000000000000000000000000000000765"
          ],
          "data": "0x000000000000000000000000000000000000000000000002db662b90bc57302f00000000000000000000000000000000000000000000000305084fabb283302f",
          "blockHash": "0x20f4daac3115f9c3873f24d08b1e059487f4f02bfd2435ddf11c2436ddbd76eb",
          "blockNumber": "0x5a2e8a",
          "transactionHash": "0x5ffa0ecfad900e48296e27c11ccb122dc9cc680cf50d063e0d04d197ca8d312e",
          "transactionIndex": "0x3f",
          "logIndex": "0xf0",
          "removed": false
        }
      ],
      "logsBloom": "0x0000001400000020000000000000000000000004000000020000000002000000000000000000800000000000000000000000000000000000000000000000000000000000000000000000000800000000000004000000000000002000000000000000000000000000000001000000000000000000400010000000001000000000000000000c000020000000000000800010000020000000000000000000000000000000000000000000000000000000000000000000000000000400000000000000000002000000000000000000000000000000000000000100000000000000000000000000800000000000000000000000000000000000000000000000000000",
      "type": "0x2",
      "transactionHash": "0x5ffa0ecfad900e48296e27c11ccb122dc9cc680cf50d063e0d04d197ca8d312e",
      "transactionIndex": "0x3f",
      "blockHash": "0x20f4daac3115f9c3873f24d08b1e059487f4f02bfd2435ddf11c2436ddbd76eb",
      "blockNumber": "0x5a2e8a",
      "gasUsed": "0xe77e",
      "effectiveGasPrice": "0x2b708b695",
      "from": "0xa725d004fa87a5202df119fe5aacec95043db7b9",
      "to": "0x779877a7b0d9e8603169ddbd7836e478b4624789",
      "contractAddress": null
    }
  ],
  "libraries": [],
  "pending": [],
  "returns": {},
  "timestamp": 1715806034,
  "chain": 11155111,
  "commit": "9268e55"
}